{
  "contractName": "SpacePolyToken",
  "abi": [
    {
      "inputs": [],
      "stateMutability": "nonpayable",
      "type": "constructor"
    },
    {
      "anonymous": false,
      "inputs": [
        {
          "indexed": true,
          "internalType": "address",
          "name": "owner",
          "type": "address"
        },
        {
          "indexed": true,
          "internalType": "address",
          "name": "spender",
          "type": "address"
        },
        {
          "indexed": false,
          "internalType": "uint256",
          "name": "value",
          "type": "uint256"
        }
      ],
      "name": "Approval",
      "type": "event"
    },
    {
      "anonymous": false,
      "inputs": [
        {
          "indexed": true,
          "internalType": "address",
          "name": "previousOwner",
          "type": "address"
        },
        {
          "indexed": true,
          "internalType": "address",
          "name": "newOwner",
          "type": "address"
        }
      ],
      "name": "OwnershipTransferred",
      "type": "event"
    },
    {
      "anonymous": false,
      "inputs": [
        {
          "indexed": true,
          "internalType": "address",
          "name": "from",
          "type": "address"
        },
        {
          "indexed": true,
          "internalType": "address",
          "name": "to",
          "type": "address"
        },
        {
          "indexed": false,
          "internalType": "uint256",
          "name": "value",
          "type": "uint256"
        }
      ],
      "name": "Transfer",
      "type": "event"
    },
    {
      "inputs": [
        {
          "internalType": "address",
          "name": "owner",
          "type": "address"
        },
        {
          "internalType": "address",
          "name": "spender",
          "type": "address"
        }
      ],
      "name": "allowance",
      "outputs": [
        {
          "internalType": "uint256",
          "name": "",
          "type": "uint256"
        }
      ],
      "stateMutability": "view",
      "type": "function"
    },
    {
      "inputs": [
        {
          "internalType": "address",
          "name": "spender",
          "type": "address"
        },
        {
          "internalType": "uint256",
          "name": "amount",
          "type": "uint256"
        }
      ],
      "name": "approve",
      "outputs": [
        {
          "internalType": "bool",
          "name": "",
          "type": "bool"
        }
      ],
      "stateMutability": "nonpayable",
      "type": "function"
    },
    {
      "inputs": [
        {
          "internalType": "address",
          "name": "account",
          "type": "address"
        }
      ],
      "name": "balanceOf",
      "outputs": [
        {
          "internalType": "uint256",
          "name": "",
          "type": "uint256"
        }
      ],
      "stateMutability": "view",
      "type": "function"
    },
    {
      "inputs": [
        {
          "internalType": "uint256",
          "name": "amount",
          "type": "uint256"
        }
      ],
      "name": "burn",
      "outputs": [],
      "stateMutability": "nonpayable",
      "type": "function"
    },
    {
      "inputs": [
        {
          "internalType": "address",
          "name": "account",
          "type": "address"
        },
        {
          "internalType": "uint256",
          "name": "amount",
          "type": "uint256"
        }
      ],
      "name": "burnFrom",
      "outputs": [],
      "stateMutability": "nonpayable",
      "type": "function"
    },
    {
      "inputs": [
        {
          "internalType": "address",
          "name": "spender",
          "type": "address"
        },
        {
          "internalType": "uint256",
          "name": "subtractedValue",
          "type": "uint256"
        }
      ],
      "name": "decreaseAllowance",
      "outputs": [
        {
          "internalType": "bool",
          "name": "",
          "type": "bool"
        }
      ],
      "stateMutability": "nonpayable",
      "type": "function"
    },
    {
      "inputs": [
        {
          "internalType": "address",
          "name": "spender",
          "type": "address"
        },
        {
          "internalType": "uint256",
          "name": "addedValue",
          "type": "uint256"
        }
      ],
      "name": "increaseAllowance",
      "outputs": [
        {
          "internalType": "bool",
          "name": "",
          "type": "bool"
        }
      ],
      "stateMutability": "nonpayable",
      "type": "function"
    },
    {
      "inputs": [],
      "name": "inventory",
      "outputs": [
        {
          "internalType": "address",
          "name": "",
          "type": "address"
        }
      ],
      "stateMutability": "view",
      "type": "function"
    },
    {
      "inputs": [],
      "name": "name",
      "outputs": [
        {
          "internalType": "string",
          "name": "",
          "type": "string"
        }
      ],
      "stateMutability": "view",
      "type": "function"
    },
    {
      "inputs": [],
      "name": "owner",
      "outputs": [
        {
          "internalType": "address",
          "name": "",
          "type": "address"
        }
      ],
      "stateMutability": "view",
      "type": "function"
    },
    {
      "inputs": [],
      "name": "renounceOwnership",
      "outputs": [],
      "stateMutability": "nonpayable",
      "type": "function"
    },
    {
      "inputs": [],
      "name": "symbol",
      "outputs": [
        {
          "internalType": "string",
          "name": "",
          "type": "string"
        }
      ],
      "stateMutability": "view",
      "type": "function"
    },
    {
      "inputs": [],
      "name": "totalSupply",
      "outputs": [
        {
          "internalType": "uint256",
          "name": "",
          "type": "uint256"
        }
      ],
      "stateMutability": "view",
      "type": "function"
    },
    {
      "inputs": [
        {
          "internalType": "address",
          "name": "to",
          "type": "address"
        },
        {
          "internalType": "uint256",
          "name": "amount",
          "type": "uint256"
        }
      ],
      "name": "transfer",
      "outputs": [
        {
          "internalType": "bool",
          "name": "",
          "type": "bool"
        }
      ],
      "stateMutability": "nonpayable",
      "type": "function"
    },
    {
      "inputs": [
        {
          "internalType": "address",
          "name": "from",
          "type": "address"
        },
        {
          "internalType": "address",
          "name": "to",
          "type": "address"
        },
        {
          "internalType": "uint256",
          "name": "amount",
          "type": "uint256"
        }
      ],
      "name": "transferFrom",
      "outputs": [
        {
          "internalType": "bool",
          "name": "",
          "type": "bool"
        }
      ],
      "stateMutability": "nonpayable",
      "type": "function"
    },
    {
      "inputs": [
        {
          "internalType": "address",
          "name": "newOwner",
          "type": "address"
        }
      ],
      "name": "transferOwnership",
      "outputs": [],
      "stateMutability": "nonpayable",
      "type": "function"
    },
    {
      "inputs": [],
      "name": "decimals",
      "outputs": [
        {
          "internalType": "uint8",
          "name": "",
          "type": "uint8"
        }
      ],
      "stateMutability": "view",
      "type": "function"
    },
    {
      "inputs": [
        {
          "internalType": "address",
          "name": "to_",
          "type": "address"
        },
        {
          "internalType": "uint256",
          "name": "amount",
          "type": "uint256"
        }
      ],
      "name": "mint",
      "outputs": [],
      "stateMutability": "nonpayable",
      "type": "function"
    }
  ],
  "bytecode": "0x60806040523480156200001157600080fd5b506040518060400160405280600e81526020017f5370616365506f6c79546f6b656e0000000000000000000000000000000000008152506040518060400160405280600381526020017f535054000000000000000000000000000000000000000000000000000000000081525081600390805190602001906200009692919062000364565b508060049080519060200190620000af92919062000364565b505050620000d2620000c66200011460201b60201c565b6200011c60201b60201c565b620000e633614e20620001e260201b60201c565b6200010e73a3b38051bf77067fccb02d83ecef9cce27c81a31614e20620001e260201b60201c565b620005bf565b600033905090565b6000600560009054906101000a900473ffffffffffffffffffffffffffffffffffffffff16905081600560006101000a81548173ffffffffffffffffffffffffffffffffffffffff021916908373ffffffffffffffffffffffffffffffffffffffff1602179055508173ffffffffffffffffffffffffffffffffffffffff168173ffffffffffffffffffffffffffffffffffffffff167f8be0079c531659141344cd1fd0a4f28419497f9722a3daafe3b4186f6b6457e060405160405180910390a35050565b600073ffffffffffffffffffffffffffffffffffffffff168273ffffffffffffffffffffffffffffffffffffffff160362000254576040517f08c379a00000000000000000000000000000000000000000000000000000000081526004016200024b9062000475565b60405180910390fd5b62000268600083836200035a60201b60201c565b80600260008282546200027c9190620004d0565b92505081905550806000808473ffffffffffffffffffffffffffffffffffffffff1673ffffffffffffffffffffffffffffffffffffffff1681526020019081526020016000206000828254620002d39190620004d0565b925050819055508173ffffffffffffffffffffffffffffffffffffffff16600073ffffffffffffffffffffffffffffffffffffffff167fddf252ad1be2c89b69c2b068fc378daa952ba7f163c4a11628f55a4df523b3ef836040516200033a91906200053e565b60405180910390a362000356600083836200035f60201b60201c565b5050565b505050565b505050565b82805462000372906200058a565b90600052602060002090601f016020900481019282620003965760008555620003e2565b82601f10620003b157805160ff1916838001178555620003e2565b82800160010185558215620003e2579182015b82811115620003e1578251825591602001919060010190620003c4565b5b509050620003f19190620003f5565b5090565b5b8082111562000410576000816000905550600101620003f6565b5090565b600082825260208201905092915050565b7f45524332303a206d696e7420746f20746865207a65726f206164647265737300600082015250565b60006200045d601f8362000414565b91506200046a8262000425565b602082019050919050565b6000602082019050818103600083015262000490816200044e565b9050919050565b6000819050919050565b7f4e487b7100000000000000000000000000000000000000000000000000000000600052601160045260246000fd5b6000620004dd8262000497565b9150620004ea8362000497565b9250827fffffffffffffffffffffffffffffffffffffffffffffffffffffffffffffffff03821115620005225762000521620004a1565b5b828201905092915050565b620005388162000497565b82525050565b60006020820190506200055560008301846200052d565b92915050565b7f4e487b7100000000000000000000000000000000000000000000000000000000600052602260045260246000fd5b60006002820490506001821680620005a357607f821691505b602082108103620005b957620005b86200055b565b5b50919050565b611dcf80620005cf6000396000f3fe608060405234801561001057600080fd5b50600436106101165760003560e01c806370a08231116100a257806395d89b411161007157806395d89b41146102cf578063a457c2d7146102ed578063a9059cbb1461031d578063dd62ed3e1461034d578063f2fde38b1461037d57610116565b806370a082311461025b578063715018a61461028b57806379cc6790146102955780638da5cb5b146102b157610116565b806323b872dd116100e957806323b872dd146101a5578063313ce567146101d557806339509351146101f357806340c10f191461022357806342966c681461023f57610116565b806306fdde031461011b578063095ea7b31461013957806315d52a5c1461016957806318160ddd14610187575b600080fd5b610123610399565b6040516101309190611299565b60405180910390f35b610153600480360381019061014e9190611354565b61042b565b60405161016091906113af565b60405180910390f35b61017161044e565b60405161017e91906113d9565b60405180910390f35b61018f610474565b60405161019c9190611403565b60405180910390f35b6101bf60048036038101906101ba919061141e565b61047e565b6040516101cc91906113af565b60405180910390f35b6101dd6104ad565b6040516101ea919061148d565b60405180910390f35b61020d60048036038101906102089190611354565b6104b2565b60405161021a91906113af565b60405180910390f35b61023d60048036038101906102389190611354565b6104e9565b005b610259600480360381019061025491906114a8565b6105b1565b005b610275600480360381019061027091906114d5565b6105c5565b6040516102829190611403565b60405180910390f35b61029361060d565b005b6102af60048036038101906102aa9190611354565b610621565b005b6102b9610641565b6040516102c691906113d9565b60405180910390f35b6102d761066b565b6040516102e49190611299565b60405180910390f35b61030760048036038101906103029190611354565b6106fd565b60405161031491906113af565b60405180910390f35b61033760048036038101906103329190611354565b610774565b60405161034491906113af565b60405180910390f35b61036760048036038101906103629190611502565b610797565b6040516103749190611403565b60405180910390f35b610397600480360381019061039291906114d5565b61081e565b005b6060600380546103a890611571565b80601f01602080910402602001604051908101604052809291908181526020018280546103d490611571565b80156104215780601f106103f657610100808354040283529160200191610421565b820191906000526020600020905b81548152906001019060200180831161040457829003601f168201915b5050505050905090565b6000806104366108a1565b90506104438185856108a9565b600191505092915050565b600660009054906101000a900473ffffffffffffffffffffffffffffffffffffffff1681565b6000600254905090565b6000806104896108a1565b9050610496858285610a72565b6104a1858585610afe565b60019150509392505050565b600090565b6000806104bd6108a1565b90506104de8185856104cf8589610797565b6104d991906115d1565b6108a9565b600191505092915050565b6104f1610d7d565b600073ffffffffffffffffffffffffffffffffffffffff168273ffffffffffffffffffffffffffffffffffffffff1603610560576040517f08c379a000000000000000000000000000000000000000000000000000000000815260040161055790611673565b60405180910390fd5b600081116105a3576040517f08c379a000000000000000000000000000000000000000000000000000000000815260040161059a906116df565b60405180910390fd5b6105ad8282610dfb565b5050565b6105c26105bc6108a1565b82610f5a565b50565b60008060008373ffffffffffffffffffffffffffffffffffffffff1673ffffffffffffffffffffffffffffffffffffffff168152602001908152602001600020549050919050565b610615610d7d565b61061f6000611130565b565b6106338261062d6108a1565b83610a72565b61063d8282610f5a565b5050565b6000600560009054906101000a900473ffffffffffffffffffffffffffffffffffffffff16905090565b60606004805461067a90611571565b80601f01602080910402602001604051908101604052809291908181526020018280546106a690611571565b80156106f35780601f106106c8576101008083540402835291602001916106f3565b820191906000526020600020905b8154815290600101906020018083116106d657829003601f168201915b5050505050905090565b6000806107086108a1565b905060006107168286610797565b90508381101561075b576040517f08c379a000000000000000000000000000000000000000000000000000000000815260040161075290611771565b60405180910390fd5b61076882868684036108a9565b60019250505092915050565b60008061077f6108a1565b905061078c818585610afe565b600191505092915050565b6000600160008473ffffffffffffffffffffffffffffffffffffffff1673ffffffffffffffffffffffffffffffffffffffff16815260200190815260200160002060008373ffffffffffffffffffffffffffffffffffffffff1673ffffffffffffffffffffffffffffffffffffffff16815260200190815260200160002054905092915050565b610826610d7d565b600073ffffffffffffffffffffffffffffffffffffffff168173ffffffffffffffffffffffffffffffffffffffff1603610895576040517f08c379a000000000000000000000000000000000000000000000000000000000815260040161088c90611803565b60405180910390fd5b61089e81611130565b50565b600033905090565b600073ffffffffffffffffffffffffffffffffffffffff168373ffffffffffffffffffffffffffffffffffffffff1603610918576040517f08c379a000000000000000000000000000000000000000000000000000000000815260040161090f90611895565b60405180910390fd5b600073ffffffffffffffffffffffffffffffffffffffff168273ffffffffffffffffffffffffffffffffffffffff1603610987576040517f08c379a000000000000000000000000000000000000000000000000000000000815260040161097e90611927565b60405180910390fd5b80600160008573ffffffffffffffffffffffffffffffffffffffff1673ffffffffffffffffffffffffffffffffffffffff16815260200190815260200160002060008473ffffffffffffffffffffffffffffffffffffffff1673ffffffffffffffffffffffffffffffffffffffff168152602001908152602001600020819055508173ffffffffffffffffffffffffffffffffffffffff168373ffffffffffffffffffffffffffffffffffffffff167f8c5be1e5ebec7d5bd14f71427d1e84f3dd0314c0f7b2291e5b200ac8c7c3b92583604051610a659190611403565b60405180910390a3505050565b6000610a7e8484610797565b90507fffffffffffffffffffffffffffffffffffffffffffffffffffffffffffffffff8114610af85781811015610aea576040517f08c379a0000000000000000000000000000000000000000000000000000000008152600401610ae190611993565b60405180910390fd5b610af784848484036108a9565b5b50505050565b600073ffffffffffffffffffffffffffffffffffffffff168373ffffffffffffffffffffffffffffffffffffffff1603610b6d576040517f08c379a0000000000000000000000000000000000000000000000000000000008152600401610b6490611a25565b60405180910390fd5b600073ffffffffffffffffffffffffffffffffffffffff168273ffffffffffffffffffffffffffffffffffffffff1603610bdc576040517f08c379a0000000000000000000000000000000000000000000000000000000008152600401610bd390611ab7565b60405180910390fd5b610be78383836111f6565b60008060008573ffffffffffffffffffffffffffffffffffffffff1673ffffffffffffffffffffffffffffffffffffffff16815260200190815260200160002054905081811015610c6d576040517f08c379a0000000000000000000000000000000000000000000000000000000008152600401610c6490611b49565b60405180910390fd5b8181036000808673ffffffffffffffffffffffffffffffffffffffff1673ffffffffffffffffffffffffffffffffffffffff16815260200190815260200160002081905550816000808573ffffffffffffffffffffffffffffffffffffffff1673ffffffffffffffffffffffffffffffffffffffff1681526020019081526020016000206000828254610d0091906115d1565b925050819055508273ffffffffffffffffffffffffffffffffffffffff168473ffffffffffffffffffffffffffffffffffffffff167fddf252ad1be2c89b69c2b068fc378daa952ba7f163c4a11628f55a4df523b3ef84604051610d649190611403565b60405180910390a3610d778484846111fb565b50505050565b610d856108a1565b73ffffffffffffffffffffffffffffffffffffffff16610da3610641565b73ffffffffffffffffffffffffffffffffffffffff1614610df9576040517f08c379a0000000000000000000000000000000000000000000000000000000008152600401610df090611bb5565b60405180910390fd5b565b600073ffffffffffffffffffffffffffffffffffffffff168273ffffffffffffffffffffffffffffffffffffffff1603610e6a576040517f08c379a0000000000000000000000000000000000000000000000000000000008152600401610e6190611c21565b60405180910390fd5b610e76600083836111f6565b8060026000828254610e8891906115d1565b92505081905550806000808473ffffffffffffffffffffffffffffffffffffffff1673ffffffffffffffffffffffffffffffffffffffff1681526020019081526020016000206000828254610edd91906115d1565b925050819055508173ffffffffffffffffffffffffffffffffffffffff16600073ffffffffffffffffffffffffffffffffffffffff167fddf252ad1be2c89b69c2b068fc378daa952ba7f163c4a11628f55a4df523b3ef83604051610f429190611403565b60405180910390a3610f56600083836111fb565b5050565b600073ffffffffffffffffffffffffffffffffffffffff168273ffffffffffffffffffffffffffffffffffffffff1603610fc9576040517f08c379a0000000000000000000000000000000000000000000000000000000008152600401610fc090611cb3565b60405180910390fd5b610fd5826000836111f6565b60008060008473ffffffffffffffffffffffffffffffffffffffff1673ffffffffffffffffffffffffffffffffffffffff1681526020019081526020016000205490508181101561105b576040517f08c379a000000000000000000000000000000000000000000000000000000000815260040161105290611d45565b60405180910390fd5b8181036000808573ffffffffffffffffffffffffffffffffffffffff1673ffffffffffffffffffffffffffffffffffffffff1681526020019081526020016000208190555081600260008282546110b29190611d65565b92505081905550600073ffffffffffffffffffffffffffffffffffffffff168373ffffffffffffffffffffffffffffffffffffffff167fddf252ad1be2c89b69c2b068fc378daa952ba7f163c4a11628f55a4df523b3ef846040516111179190611403565b60405180910390a361112b836000846111fb565b505050565b6000600560009054906101000a900473ffffffffffffffffffffffffffffffffffffffff16905081600560006101000a81548173ffffffffffffffffffffffffffffffffffffffff021916908373ffffffffffffffffffffffffffffffffffffffff1602179055508173ffffffffffffffffffffffffffffffffffffffff168173ffffffffffffffffffffffffffffffffffffffff167f8be0079c531659141344cd1fd0a4f28419497f9722a3daafe3b4186f6b6457e060405160405180910390a35050565b505050565b505050565b600081519050919050565b600082825260208201905092915050565b60005b8381101561123a57808201518184015260208101905061121f565b83811115611249576000848401525b50505050565b6000601f19601f8301169050919050565b600061126b82611200565b611275818561120b565b935061128581856020860161121c565b61128e8161124f565b840191505092915050565b600060208201905081810360008301526112b38184611260565b905092915050565b600080fd5b600073ffffffffffffffffffffffffffffffffffffffff82169050919050565b60006112eb826112c0565b9050919050565b6112fb816112e0565b811461130657600080fd5b50565b600081359050611318816112f2565b92915050565b6000819050919050565b6113318161131e565b811461133c57600080fd5b50565b60008135905061134e81611328565b92915050565b6000806040838503121561136b5761136a6112bb565b5b600061137985828601611309565b925050602061138a8582860161133f565b9150509250929050565b60008115159050919050565b6113a981611394565b82525050565b60006020820190506113c460008301846113a0565b92915050565b6113d3816112e0565b82525050565b60006020820190506113ee60008301846113ca565b92915050565b6113fd8161131e565b82525050565b600060208201905061141860008301846113f4565b92915050565b600080600060608486031215611437576114366112bb565b5b600061144586828701611309565b935050602061145686828701611309565b92505060406114678682870161133f565b9150509250925092565b600060ff82169050919050565b61148781611471565b82525050565b60006020820190506114a2600083018461147e565b92915050565b6000602082840312156114be576114bd6112bb565b5b60006114cc8482850161133f565b91505092915050565b6000602082840312156114eb576114ea6112bb565b5b60006114f984828501611309565b91505092915050565b60008060408385031215611519576115186112bb565b5b600061152785828601611309565b925050602061153885828601611309565b9150509250929050565b7f4e487b7100000000000000000000000000000000000000000000000000000000600052602260045260246000fd5b6000600282049050600182168061158957607f821691505b60208210810361159c5761159b611542565b5b50919050565b7f4e487b7100000000000000000000000000000000000000000000000000000000600052601160045260246000fd5b60006115dc8261131e565b91506115e78361131e565b9250827fffffffffffffffffffffffffffffffffffffffffffffffffffffffffffffffff0382111561161c5761161b6115a2565b5b828201905092915050565b7f746f206164647265737320697320696e76616c69640000000000000000000000600082015250565b600061165d60158361120b565b915061166882611627565b602082019050919050565b6000602082019050818103600083015261168c81611650565b9050919050565b7f616d6f756e7420697320696e76616c6964000000000000000000000000000000600082015250565b60006116c960118361120b565b91506116d482611693565b602082019050919050565b600060208201905081810360008301526116f8816116bc565b9050919050565b7f45524332303a2064656372656173656420616c6c6f77616e63652062656c6f7760008201527f207a65726f000000000000000000000000000000000000000000000000000000602082015250565b600061175b60258361120b565b9150611766826116ff565b604082019050919050565b6000602082019050818103600083015261178a8161174e565b9050919050565b7f4f776e61626c653a206e6577206f776e657220697320746865207a65726f206160008201527f6464726573730000000000000000000000000000000000000000000000000000602082015250565b60006117ed60268361120b565b91506117f882611791565b604082019050919050565b6000602082019050818103600083015261181c816117e0565b9050919050565b7f45524332303a20617070726f76652066726f6d20746865207a65726f2061646460008201527f7265737300000000000000000000000000000000000000000000000000000000602082015250565b600061187f60248361120b565b915061188a82611823565b604082019050919050565b600060208201905081810360008301526118ae81611872565b9050919050565b7f45524332303a20617070726f766520746f20746865207a65726f20616464726560008201527f7373000000000000000000000000000000000000000000000000000000000000602082015250565b600061191160228361120b565b915061191c826118b5565b604082019050919050565b6000602082019050818103600083015261194081611904565b9050919050565b7f45524332303a20696e73756666696369656e7420616c6c6f77616e6365000000600082015250565b600061197d601d8361120b565b915061198882611947565b602082019050919050565b600060208201905081810360008301526119ac81611970565b9050919050565b7f45524332303a207472616e736665722066726f6d20746865207a65726f20616460008201527f6472657373000000000000000000000000000000000000000000000000000000602082015250565b6000611a0f60258361120b565b9150611a1a826119b3565b604082019050919050565b60006020820190508181036000830152611a3e81611a02565b9050919050565b7f45524332303a207472616e7366657220746f20746865207a65726f206164647260008201527f6573730000000000000000000000000000000000000000000000000000000000602082015250565b6000611aa160238361120b565b9150611aac82611a45565b604082019050919050565b60006020820190508181036000830152611ad081611a94565b9050919050565b7f45524332303a207472616e7366657220616d6f756e742065786365656473206260008201527f616c616e63650000000000000000000000000000000000000000000000000000602082015250565b6000611b3360268361120b565b9150611b3e82611ad7565b604082019050919050565b60006020820190508181036000830152611b6281611b26565b9050919050565b7f4f776e61626c653a2063616c6c6572206973206e6f7420746865206f776e6572600082015250565b6000611b9f60208361120b565b9150611baa82611b69565b602082019050919050565b60006020820190508181036000830152611bce81611b92565b9050919050565b7f45524332303a206d696e7420746f20746865207a65726f206164647265737300600082015250565b6000611c0b601f8361120b565b9150611c1682611bd5565b602082019050919050565b60006020820190508181036000830152611c3a81611bfe565b9050919050565b7f45524332303a206275726e2066726f6d20746865207a65726f2061646472657360008201527f7300000000000000000000000000000000000000000000000000000000000000602082015250565b6000611c9d60218361120b565b9150611ca882611c41565b604082019050919050565b60006020820190508181036000830152611ccc81611c90565b9050919050565b7f45524332303a206275726e20616d6f756e7420657863656564732062616c616e60008201527f6365000000000000000000000000000000000000000000000000000000000000602082015250565b6000611d2f60228361120b565b9150611d3a82611cd3565b604082019050919050565b60006020820190508181036000830152611d5e81611d22565b9050919050565b6000611d708261131e565b9150611d7b8361131e565b925082821015611d8e57611d8d6115a2565b5b82820390509291505056fea26469706673582212200f3dfd5f865484b480bf4334a8b0e041946ede3225bff335cd36bfaa91fb9bf664736f6c634300080d0033",
  "immutableReferences": {},
  "source": "pragma solidity >=0.4.25 <0.9.0;\n\nimport \"@openzeppelin/contracts/token/ERC20/ERC20.sol\";\nimport \"@openzeppelin/contracts/access/Ownable.sol\";\nimport \"@openzeppelin/contracts/token/ERC20/extensions/ERC20Burnable.sol\";\n\ncontract SpacePolyToken is ERC20, ERC20Burnable, Ownable {\n    address public inventory;\n\n    constructor() ERC20(\"SpacePolyToken\", \"SPT\") {\n        _mint(msg.sender, 20000);\n        _mint(address(0xA3B38051Bf77067fcCb02D83eCEF9CcE27c81A31), 20000);\n    }\n\n    function decimals() public view virtual override returns (uint8) {\n        return 0;\n    }\n\n    function mint(address to_, uint256 amount) public onlyOwner {\n        require(to_ != address(0), \"to address is invalid\");\n        require(amount > 0, \"amount is invalid\");\n        _mint(to_, amount);\n    }\n}\n",
  "sourcePath": "/Users/maadhav/Documents/web3Projects/spaceoz-poly/contracts/SpacePolyToken.sol",
  "compiler": {
    "name": "solc",
    "version": "0.8.13+commit.abaa5c0e.Emscripten.clang"
  },
  "schemaVersion": "3.4.8",
  "updatedAt": "2022-08-21T16:05:29.119Z",
  "devdoc": {
    "kind": "dev",
    "methods": {
      "allowance(address,address)": {
        "details": "See {IERC20-allowance}."
      },
      "approve(address,uint256)": {
        "details": "See {IERC20-approve}. NOTE: If `amount` is the maximum `uint256`, the allowance is not updated on `transferFrom`. This is semantically equivalent to an infinite approval. Requirements: - `spender` cannot be the zero address."
      },
      "balanceOf(address)": {
        "details": "See {IERC20-balanceOf}."
      },
      "burn(uint256)": {
        "details": "Destroys `amount` tokens from the caller. See {ERC20-_burn}."
      },
      "burnFrom(address,uint256)": {
        "details": "Destroys `amount` tokens from `account`, deducting from the caller's allowance. See {ERC20-_burn} and {ERC20-allowance}. Requirements: - the caller must have allowance for ``accounts``'s tokens of at least `amount`."
      },
      "decimals()": {
        "details": "Returns the number of decimals used to get its user representation. For example, if `decimals` equals `2`, a balance of `505` tokens should be displayed to a user as `5.05` (`505 / 10 ** 2`). Tokens usually opt for a value of 18, imitating the relationship between Ether and Wei. This is the value {ERC20} uses, unless this function is overridden; NOTE: This information is only used for _display_ purposes: it in no way affects any of the arithmetic of the contract, including {IERC20-balanceOf} and {IERC20-transfer}."
      },
      "decreaseAllowance(address,uint256)": {
        "details": "Atomically decreases the allowance granted to `spender` by the caller. This is an alternative to {approve} that can be used as a mitigation for problems described in {IERC20-approve}. Emits an {Approval} event indicating the updated allowance. Requirements: - `spender` cannot be the zero address. - `spender` must have allowance for the caller of at least `subtractedValue`."
      },
      "increaseAllowance(address,uint256)": {
        "details": "Atomically increases the allowance granted to `spender` by the caller. This is an alternative to {approve} that can be used as a mitigation for problems described in {IERC20-approve}. Emits an {Approval} event indicating the updated allowance. Requirements: - `spender` cannot be the zero address."
      },
      "name()": {
        "details": "Returns the name of the token."
      },
      "owner()": {
        "details": "Returns the address of the current owner."
      },
      "renounceOwnership()": {
        "details": "Leaves the contract without owner. It will not be possible to call `onlyOwner` functions anymore. Can only be called by the current owner. NOTE: Renouncing ownership will leave the contract without an owner, thereby removing any functionality that is only available to the owner."
      },
      "symbol()": {
        "details": "Returns the symbol of the token, usually a shorter version of the name."
      },
      "totalSupply()": {
        "details": "See {IERC20-totalSupply}."
      },
      "transfer(address,uint256)": {
        "details": "See {IERC20-transfer}. Requirements: - `to` cannot be the zero address. - the caller must have a balance of at least `amount`."
      },
      "transferFrom(address,address,uint256)": {
        "details": "See {IERC20-transferFrom}. Emits an {Approval} event indicating the updated allowance. This is not required by the EIP. See the note at the beginning of {ERC20}. NOTE: Does not update the allowance if the current allowance is the maximum `uint256`. Requirements: - `from` and `to` cannot be the zero address. - `from` must have a balance of at least `amount`. - the caller must have allowance for ``from``'s tokens of at least `amount`."
      },
      "transferOwnership(address)": {
        "details": "Transfers ownership of the contract to a new account (`newOwner`). Can only be called by the current owner."
      }
    },
    "version": 1
  },
  "userdoc": {
    "kind": "user",
    "methods": {},
    "version": 1
  }
}